:100000000C94C7090C94EF090C94EF090C94EF09B8
:100010000C94EF090C94EF090C94EF090C94EF0980
:100020000C94EF090C94EF090C94A4220C94132364
:100030000C94EF090C94EF090C94EF090C94EF0960
:100040000C94EF090C94EF090C94EF090C94EF0950
:100050000C94EF090C94EF090C94EF090C944525CE
:100060000C94EF090C94EF090C94EF090C94EF0930
:100070000C94EF090C94EF090C94EF090C94EF0920
:100080000C948F250C94EF090C94EF090C94EF0954
:100090000C94EF090C94EF090C94EF090C94EF0900
:1000A0000C94EF090C94EF090C94EF090102040879
:1000B0001020408000000000F87FF87FFCFF4CC259
:1000C000FCFF54BAFCFF5CBAFCFF5CBAFCFF5CA00E
:1000D000FCFF5CACFCFF5CACFCFF5CA0FCFF5CBA12
:1000E000FCFF5CBAFCFF54BAFCFF4CC2F87FF87FFF
:1000F0000000000000000000000000000000000000
:10010000F007F007F047F047F087B086F007B00639
:10011000FCFFB4F6FCFFB4F6F007B006F087B0863B
:10012000F047F047F007F007000000000000000073
:1001300000000000000000000000000000000000BF
:1001400000380038007C004438FE38BAF8FFE8BDBB
:10015000FCFF0CBCFCFF0CBCF8FFE8BD38FE38BA55
:10016000007C00440038003800000000000000005F
:10017000000000000000000060006000E00FE00DE3
:10018000F03FF03DF17FF17DFBFFFBFDFFFFFEFD4A
:10019000FFFFFEFDFFFFFEFDFFFFFEFDFBFFFBFD82
:1001A000F17FF17DF03FF03DE00FE00D6000600079
:1001B000000000000020000000700000007000003F
:1001C00000F80000C0FFC03F00F9000900F9000975
:1001D00000F9000900F9000900F9000900F9000917
:1001E000C0FFC03F00F80000007000000070000079
:1001F00000200000040000000E0000000E000000BF
:100200001F000000FF03FC039F0090009F00900070
:100210009F0090009F0090009F0090009F00900022
:10022000FF03FC031F0000000E0000000E00000092
:10023000040000000100020004000800100020007B
:1002400040008000000100020004000800100020AF
:100250000040008001020408102040800F00080FB9
:100260000004080C0F000205080A0D0F0002040626
:10027000080A0C0E0F000103040608090B0C0E0FF0
:1002800000010204050608090A0C0D0E0F00010208
:100290000304050608090A0B0C0D0E0F00010203EA
:1002A0000405060708090A0B0C0D0E0F0F000001CC
:1002B0000203040506070808090A0B0C0D0E0F0FB0
:1002C000000001020304040506070808090A0B0CD4
:1002D0000C0D0E0F0F0000010202030405050607B6
:1002E0000808090A0A0B0C0D0D0E0F0F0000010281
:1002F00002030404050606070808090A0A0B0C0C89
:100300000D0E0E0F0F000001010203030404050689
:100310000607080809090A0B0B0C0C0D0E0E0F0F2F
:10032000000001010202030404050506060708088F
:1003300009090A0A0B0C0C0D0D0E0E0F0F0000011F
:10034000010202030304040505060607080809095B
:100350000A0A0B0B0C0C0D0D0E0E0F0F0000010105
:100360000202030304040505060607070808090935
:100370000A0A0B0B0C0C0D0D0E0E0F0F0FE10932BC
:100380000414030200600061091E051403020160E9
:1003900000E10814070A020000500161080A07057D
:1003A0000100003200FFFFFFFFFFD1FFFFF9FFF95F
:1003B000FFC1EBC1FFD3C1E5FFCDF7D9FFCBD5EB33
:1003C000FFFFF9FFFFFFE3DDFFFFDDE3FFEBF7EBEF
:1003D000FFF7E3F7FFDFEFFFFFF7F7F7FFFFDFFFC1
:1003E000FFCFF7F9FFC3DDE1FFDBC1DFFFCDD5D3E1
:1003F000FFDDD5EBFFE1EFC7FFD1D5E5FFC3D5E5C5
:10040000FFCDF5F9FFC3D5E1FFD3D5E1FFFFEBFF4A
:10041000FFDFEBFFFFF7EBDDFFEBEBEBFFDDEBF7D8
:10042000FFFDD5F9FFE3DDD3FFC3F5C1FFC3D5E978
:10043000FFE3DDDDFFC1DDE3FFC3D5D5FFC3F5F588
:10044000FFE3DDC5FFC1F7C1FFDDC1DDFFEFDDE18A
:10045000FFC1F7C9FFC1DFDFFFC1FBC1FFC1FDC3A2
:10046000FFE3DDE3FFC1F5F3FFE3CDC1FFC3F5C952
:10047000FFDBD5EDFFFDC1FDFFE1DFC1FFE1DFE106
:10048000FFC1EFC1FFC9F7C9FFF9C7F9FFCDD5D942
:10049000FFFFC1DDFFF9F7CFFFFFDDC1FFFBFDFB74
:1004A000FFDFDFDFFFFFFDFBFFE7DBC3FFC1DBE7B4
:1004B000FFE7DBDBFFE7DBC1FFE7CBD3FFC3EDFBF0
:1004C000FFB7ABC7FFC1F7CFFFFFE5DFFFBFCBFF34
:1004D000FFC1F7CBFFFFE1DFFFC3F7C3FFC3FBC7DC
:1004E000FFE7DBE7FF83DBE7FFE7DB83FFC3F7FB28
:1004F000FFD7D3EBFFE1DBDFFFE3DFC3FFC3DFE3C6
:10050000FFC3EFC3FFCBF7CBFFF3AFC3FFDBCBD30F
:10051000FFF7C1DDFFFFC1FFFFDDC1F7FFFBFDFB03
:10052000FFE3EDE3FFD5F08D14A1C881CFD9F1AF82
:10053000200000000000000000000000000000009B
:1005400000000000000000000000F000B000FC7F90
:100550009C5EFA7F9A5EF000B00000000000000090
:10056000000000000000000000000000000000008B
:10057000000000000000000000000000000000007B
:1005800000000000000000000000F000B000F87F54
:10059000985EFD7F9D5EF000B0000000000000004E
:1005A000000000000000000000000000000000004B
:1005B00000003E006F6666006F6E00536F756E64DC
:1005C0003A00537461727400627920406A616D650B
:1005D0007368686F776172640043415441434F4DC3
:1005E0004253204F46205448452044414D4E4544F7
:1005F00000456E746572696E6720666C6F6F72007D
:1006000000000000C0070000F00F0000F81F00000D
:10061000FC3F0002FE3F0001FE7F9001FE7FE003F1
:10062000FE7FC007FE7F8009FC7F8000FC3F40000A
:10063000F81F0000F00F0000E003000000000000C1
:100640000000000000000000F000F000F801F801D8
:10065000FC03FC03FC07DC07FC073C07FC173C160B
:10066000F8077804F02FF02CE00FE00F001E001EBA
:100670008018801800220022000000000000000006
:100680001C1C000000000000000000000006060F17
:100690000E1F1C7E78FCF4FEE8FC90F860F080E011
:1006A00000800000000000000000000000000000CA
:1006B00000000000000000000000000C0C1E1C3EAA
:1006C000387C70F8E0F0C0E080C080C080C7C7FF11
:1006D000FFFFFFFFF8FFFFFFE0FFFCFE00FC000054
:1006E000000000000000000000000000000000000A
:1006F0000000000000000000000000000003030FE5
:100700000F1F1F3F3F7F7FFFFFFFFFFFFFFFFFFF29
:10071000FFFFFFFFFEFFF0FE60F040E000C0008042
:1007200000000000000000000000000000000000C9
:1007300000000000000000000000000000000000B9
:100740000001010F010F010F000F000F000F000F3C
:10075000000F000F000F000F000F000F000F000E22
:10076000000C1C1B0000000000000000003838FCDA
:10077000F8FCE0F880E0008000FFFEFFFCFEC0FC1B
:1007800000F0F0F8F0F800F0C0E000C00000000059
:100790000000000000000000000000000000000059
:1007A00000000000000000000003030F0FFFFEFF29
:1007B000FCFFFFFFFFFFFFFFF8FFFFFFFFFFFCFF56
:1007C000FFFF1FFF001F00000000000000000000EE
:1007D000000000000008081C183C183C183C183C9D
:1007E000183C1C3E3E7F3F7F7FFF7FFF7FFFFFFF68
:1007F000FFFF7FFF3FFF1FFF1FFF0FFF0EFF00FEEA
:1008000000F000F000E000E000C000C000000000C8
:1008100000000000000000000000000000000000D8
:1008200000000000000000010001000700070007B1
:100830000007000700070007000700070007000780
:10084000000700077CCEB69AB6CE7C007CE6C68E4A
:10085000C6E67C0046494E414C2053434F52453A30
:100860000000000000DC0FDC0F78004800F07F0083
:100870007FF8817880FC1FFC1EFC277C27FC0F542E
:100880000FFC0F6C0FFC277C27FC1FFC1EF88178E7
:1008900080F07F007F78004800DC0FDC0F00000054
:1008A0000000000000B007B007F0089008E03F002B
:1008B0003EF043F040F83FF83DF84FF84EF81FA8DF
:1008C0001EF81FD81EF84FF84EF83FF83DF043F0E1
:1008D00040E03F003EF0089008B007B0070000007D
:1008E000000000000080070000C0030000E00300DB
:1008F00000C0070000C0010000F00F8000E007000A
:1009000000E0070000F00F8000C0010000C00700F9
:1009100000E0030000C003000080070000000000AA
:10092000000000000040010000C0030000C00700FC
:10093000008007000080030000E01F0001C00F00DE
:1009400000C00F0000E01F000180030000800700CE
:1009500000C0070000C003000040010000000000CC
:100960000000000000000E000C000F00098007804E
:1009700003F807F803FCFF0477FE3F5626FE3FF618
:1009800036FE3FF636FE3F5636FC7F0437F803F856
:1009900003800180011C1E1C0CF67FF66D00000018
:1009A000000000000000000000000C000C800F8020
:1009B0000BF007F003F87F0836FC3FAC24FC3FEC5B
:1009C00035FC3FEC35FC3FAC34F8FF0876F003F023
:1009D0000300030003383C3818ECFFECDB00000098
:1009E0000000000000003F003F007F0041007F004A
:1009F0005D007F005DFC7F7C41FE7F6E3FFE3F0E11
:100A000000FE1F0E1BFEFF6EFBFCFF7CFB801F0029
:100A100011801F0004FC1FFC15000E0004000E00D6
:100A20000000000000003F003F007F0041007F0009
:100A30005D007F005DF8FFF8C1FCFFDCBFFC3F1CE0
:100A400000FC3F1C36FC7FDC76F87FF876001F0048
:100A500002001F0008F83FF82B001C0008001C00D3
:100A6000004B494C4C533A000000000000000000CD
:100A70000060006000F000D000F000D080FF80DF58
:100A8000C07F4075C07F4075C07F4075807F807F8C
:100A900000FC00D400FC00D400FC00D400780078F6
:100AA0000000000000000000000000000C000C002E
:100AB0003C9C309CFCFF846FFCFFFC8DFCFF5CEFDA
:100AC000FCFF5CEDFCFF7CEDFCFF5CEDFCFF5CEDF6
:100AD000FCFF5CEDFCFFDCEDFCFF5CEFFCE3FCE30A
:100AE0007860786000000000000000000000000056
:100AF000C03FC02F807E805E007C005C00FC00BC9C
:100B000020FF20BFF0FFF0B9F0FFF0B920FF20BFB9
:100B100000FC00BC007C005C807E805EC03FC02F7B
:100B2000000000000000000000000000F07FF07FE7
:100B3000F8FF18C2F8FFE8BAF8FFF8BAF8FFF8BAF9
:100B4000F8FFF8A0F8FFF8ACF8FFF8ACF8FFF8A051
:100B5000F8FFF8BAF8FFF8BAF8FFE8BAF8FF18C2D9
:100B6000F07FF07F000000004C4F4F543A004B697B
:100B70006C6C6564206279206120737069646572B1
:100B8000206F6E206C6576656C004B696C6C6564DB
:100B9000206279206120626174206F6E206C65761E
:100BA000656C004B696C6C65642062792061206B18
:100BB0006E69676874206F6E206C6576656C004B9B
:100BC000696C6C65642062792061206D61676520C5
:100BD0006F6E206C6576656C00596F752065736368
:100BE00061706564207468652063617461636F6D12
:100BF0006273210047414D45204F56455200310157
:100C00000700000015008D010700000007003C03ED
:100C1000070019020700380207005A020700800087
:100C200007005A021D007E0007005A020700380222
:100C3000070028020700190207007D000E008D0141
:100C400007002801070020010700F8000700EF0057
:100C500007007D000700AC0007009B000700930021
:100C600007008E0007008B00070087000700840044
:100C700007007D000700810007000080466F756E49
:100C80006420616E20616E6369656E7420736372A7
:100C90006F6C6C00466F756E642061206A657765C5
:100CA0006C20656E637275737465642063726F7710
:100CB0006E00466F756E6420736F6D6520676F6C94
:100CC0006420636F696E73004472616E6B206120F3
:100CD000706F74696F6E206F66206865616C696EF5
:100CE000670095010700000015008D010700000056
:100CF0000700160407007F00070000000E007701C0
:100D0000070000001D0046010700400107003B01ED
:100D1000070000004700E7000700E40007000000AC
:100D200015009F0007009D00070000008800880054
:100D30000700008051010700000015008D01070029
:100D4000000007004B0107003601070046010700BD
:100D5000690107009E0107007F0007008501070069
:100D6000280207006D020700FC020700E0020700EE
:100D7000FD010700190207003C030700E700070018
:100D8000810207006D020E002D050E00DA040E0030
:100D90001C01070087030700600307003C030700EE
:100DA00087030700AD020E00C60207000C010E000B
:100DB000E0020700C602070096020E00810207004B
:100DC000AD020700C6020700E0020700E1000700CD
:100DD0001B0307004802070019020700F101070082
:100DE000D9010E00F10107000B020700AD02070058
:100DF000D100070048020700380207001902070067
:100E000028020E000B020700E5010700D9010700C8
:100E10000080E002070000001500E2030700000068
:100E20000700DA041500B4000700D901070000002C
:100E30000700F1010E0080000700F101070000002B
:100E40000E005A020700E400070000001500C10070
:100E5000070000000E00E501070000000700AC00DD
:100E60000700000015009100070000801001070036
:100E7000000015008D01070000000700D9010700E0
:100E8000FD0107000B020E0028020E0038020700C9
:100E9000480207006D020700810232006D02150052
:100EA0004802070038020700B00107007E01070072
:100EB000690107004B0107003601070031010700F7
:100EC00002010700F8000700F2000700E900070030
:100ED000E4000700D8000700BD000700AB000700D2
:100EE0009D0007009600070094000700920007008D
:100EF0008E0007008B0007008A00070089000700AA
:100F000088000700870007008600070085000700AB
:100F100084000700830007008200070081000E00A4
:100F200081000700800007007E0007007D000700A9
:100F30007D00070000004000900032000080080B98
:100F40000002020200000904000001020200000584
:100F500024001001052401010104240206052406D1
:100F600000010705810310004009040100020A0086
:100F70000000070502024000000705830240000050
:100F80000403090412010002EF02014041233680EC
:100F900000010102030141726475696E6F204C4CBF
:100FA000430041726475626F79000103070F1F3FB0
:100FB0007FFFFFFEFCF8F0E0C08005002B802B00D7
:100FC0005580552B002B2B552B55554055408041B6
:100FD00062616E646F6E20616C6C20686F7065205A
:100FE00079652077686F20656E7465722100466FA1
:100FF000756E6420612063686573742066756C6C1F
:10100000206F66207472656173757265210020011E
:10101000070000001500E900070000000700560166
:1010200015000000320085011D00000040000B0289
:1010300015000000320087032400000040008703F1
:101040002B0000004000B2033200008000000600C8
:101050000C00120019001F0025002B003100380081
:101060003E0044004A00500056005C0061006700EA
:101070006D00730078007E00830088008E0093006E
:1010800098009D00A200A700AB00B000B500B90019
:10109000BD00C100C500C900CD00D100D400D800FA
:1010A000DB00DE00E100E400E700EA00EC00EE0017
:1010B000F100F300F400F600F800F900FB00FC007A
:1010C000FD00FE00FE00FF00FF00FF00FF00FF002C
:1010D000FF00FF00FE00FE00FD00FC00FB00F90029
:1010E000F800F600F400F300F100EE00EC00EA0076
:1010F000E700E400E100DE00DB00D800D400D1000E
:10110000CD00C900C500C100BD00B900B500B000E8
:10111000AB00A700A2009D00980093008E008800FD
:1011200083007E00780073006D00670061005C0042
:10113000560050004A0044003E00380031002B00A9
:1011400025001F00190012000C0006000000FAFF25
:10115000F4FFEEFFE7FFE1FFDBFFD5FFCFFFC8FFA6
:10116000C2FFBCFFB6FFB0FFAAFFA4FF9FFF99FF1D
:1011700093FF8DFF88FF82FF7DFF78FF72FF6DFF79
:1011800068FF63FF5EFF59FF55FF50FF4BFF47FFAE
:1011900043FF3FFF3BFF37FF33FF2FFF2CFF28FFAD
:1011A00025FF22FF1FFF1CFF19FF16FF14FF12FF70
:1011B0000FFF0DFF0CFF0AFF08FF07FF05FF04FFED
:1011C00003FF02FF02FF01FF01FF01FF01FF01FF1B
:1011D00001FF01FF02FF02FF03FF04FF05FF07FFFE
:1011E00008FF0AFF0CFF0DFF0FFF12FF14FF16FF91
:1011F00019FF1CFF1FFF22FF25FF28FF2CFF2FFFD9
:1012000033FF37FF3BFF3FFF43FF47FF4BFF50FFDD
:1012100055FF59FF5EFF63FF68FF6DFF72FF78FFA8
:101220007DFF82FF88FF8DFF93FF99FF9FFFA4FF43
:10123000AAFFB0FFB6FFBCFFC2FFC8FFCFFFD5FFBC
:10124000DBFFE1FFE7FFEEFFF4FFFAFFCE0107004F
:10125000000015008D0107000000070016040700BC
:1012600091040700B2030700DA0407002D051500FA
:10127000DA04070091040700E00207009602070065
:101280005A020700F10107001902070000000700D9
:10129000CE0107007C000E005C0107007D000E00FF
:1012A000200107007D000E00EF000700D5000700B9
:1012B000CA00070000000700C1000700B9000700CE
:1012C000B3000700A90007007D0007007E000700AB
:1012D000930007007E000700000007008900070058
:1012E0008500070082000700800007007E000700DD
:1012F0007D0007000080B001070000001500C80055
:10130000070000000700B203070060030700E002C7
:101310000700960207004802070019020700FD01B6
:10132000070050040700CE010700B9010700A7011C
:101330000700500407007E01070063010700400119
:1013400007002D0507001001070009010700020131
:101350000700F8000700DA040700CA000700BB0016
:101360000700B30007009104070096000700D800AB
:10137000070000001D009602070000002B00280255
:10138000070000002400FB000E000080F02511245F
:101390001FBECFEFDAE0DEBFCDBF11E0A0E0B1E0CD
:1013A000E2E2FEE602C005900D92AE32B107D9F737
:1013B0002AE0AEE2B1E001C01D92AA32B207E1F725
:1013C00019E0C7ECD9E004C02197FE010E94FA366B
:1013D000C63CD107C9F70E9426260C940F370C94FF
:1013E00000008091BA03089580E0EDEDF4E08111F2
:1013F0008FEF002481938193819381930394D1F79C
:101400000895CF93DF939C01EB0150E2459FC0010B
:10141000112464E670E00E94E636962FD90150E070
:1014200040E0FE01E40FF51FE491ED934F5F5F4F45
:1014300048305105B1F7985F86ECE92FE61B615003
:10144000E20FF32FF11D6F3F59F4D901A90FB11D20
:101450008EEFE1E0E90F983228F48D939E2FF9CFBB
:101460008083EBCF8EEF8C93E20FF32FF11D108270
:10147000DF91CF910895FC018091DB03882311F166
:101480003FB7F89482E08093E9002091F200822F28
:1014900090E01816190614F481E090E0882339F0E2
:1014A000289844E64093DA034091F10040832223D8
:1014B00039F02091F200211103C02BE62093E800BF
:1014C0003FBF08958FEF9FEF08952FB7F89483E003
:1014D0008093E9009091E800892F807295FF04C005
:1014E0009091F20080E4891B2FBF08958091D20370
:1014F00081110DC082E08093CE0384E08093CF03FE
:101500001092D1031092D00381E08093D2038EEC2D
:1015100093E00895CF93DF931F92CDB7DEB7698331
:10152000DC01ED91FC910280F381E02D41E050E07F
:10153000BE016F5F7F4F09950F90DF91CF910895A6
:1015400083E08093E9008091F200882319F08AE318
:101550008093E80008950E94650A90E00895CF9373
:10156000DF931F92CDB7DEB7FC018485958597FD8B
:1015700008C02FEF3FEF358724870F90DF91CF9181
:101580000895CE0101960E943B0A019719F48981C2
:1015900090E0F3CF8FEF9FEFF0CF0F931F93CF9398
:1015A000DF931F92CDB7DEB78C01FC018485958552
:1015B00097FF0BC0CE0101960E943B0A019771F480
:1015C000898190E0F80195878487F8018485958565
:1015D0000F90DF91CF911F910F9108958FEF9FEFA3
:1015E000F1CFFC018485958597FD0BC09FB7F894DA
:1015F00082E08093E9008091F2009FBF90E0019625
:1016000008959FB7F89482E08093E9008091F200FA
:101610009FBF90E008954091C8035091C903209165
:10162000C6033091C70342175307B4F49091E80002
:101630009570E1F39091E80092FD19C08093F1005C
:101640008091C8039091C90301968F739927892BC4
:1016500019F48EEF8093E8008091C8039091C9033C
:1016600001969093C9038093C80381E0089580E0B8
:101670000895EF92FF920F931F93CF93DF93F82E6D
:10168000192FE62E042F81E0860F880F0E940B0B86
:1016900083E00E940B0BCF2DD12FEC0EFD2EF11C01
:1016A000CE15DF05B9F007FF13C0FE0184910E943B
:1016B0000B0B182F80E00E940B0B812321968111C8
:1016C000EFCFDF91CF911F910F91FF90EF90089591
:1016D0008881EDCF81E0F5CFDF92EF92FF920F93FB
:1016E0001F93CF93DF93D82E8A01EB017B01E40E89
:1016F000F51ECE15DF0559F0D7FE12C0FE0184910C
:101700000E940B0B21968111F4CF0FEF1FEFC80140
:10171000DF91CF911F910F91FF90EF90DF9008958F
:101720008881EECF0F931F93CF93DF931F92CDB796
:10173000DEB782E0898342E450E06EE37FE080E838
:101740000E946C0B0E94760ADC0112960D911C918E
:101750000115110589F0D801ED91FC910280F3810A
:10176000E02DBE016F5F7F4FC801099597FD04C052
:10177000F80100851185ECCF89810F90DF91CF9121
:101780001F910F910895615030F02091F100FC01FC
:1017900020830196F8CF289884E68093DA03089591
:1017A0003FB7F8948091BD029091BE02A091BF0214
:1017B000B091C00226B5A89B05C02F3F19F0019635
:1017C000A11DB11D3FBFBA2FA92F982F8827BC019B
:1017D000CD01620F711D811D911D42E0660F771FC3
:1017E000881F991F4A95D1F708958F929F92AF92C3
:1017F000BF92CF92DF92EF92FF926B017C010E9429
:10180000D00B4B015C01C114D104E104F104B9F027
:101810000E94D00B681979098A099B09683E7340B8
:101820008105910580F321E0C21AD108E108F10891
:1018300088EE880E83E0981EA11CB11CE4CFFF90B7
:10184000EF90DF90CF90BF90AF909F908F900895D2
:101850008F929F92AF92BF92CF92DF92EF92FF92C0
:101860000F931F93CF93DF936C017B018A018091CB
:101870000E01882309F45CC08091DB03882309F4FE
:1018800057C08091CD0380FF05C08091E000826049
:101890008093E000E801B12C8AEFA82E93E0892E16
:1018A0002AE3922E209711F4BB20D9F10E94650AF9
:1018B00081110AC0AA94AA20D9F161E070E080E009
:1018C00090E00E94F50BEECF8C171D0611F00CF086
:1018D0008C2F9FB7F8948092E9002091E80025FDB5
:1018E00002C09FBFDFCF282F30E0C21BD30BF70110
:1018F000815020F041914093F100FACFE20EF31EA7
:10190000BB2021F09092E800B12CEBCF8091E80051
:1019100085FDE7CF9092E800BB24B394209709F3AC
:10192000F3CF5D9884E68093CC03101611063CF04B
:1019300081E090E0F6019383828310E000E0C8012B
:10194000DF91CF911F910F91FF90EF90DF90CF909B
:10195000BF90AF909F908F9008952091B502E09135
:10196000B302F091B402CF0102969093B402809337
:10197000B302222319F08591949108958081918179
:101980000895CF92DF92EF92FF92CF93DF930E9460
:10199000AD0C811520E8920791F4809171008D7F44
:1019A0008093710010929100469847981092B2026D
:1019B000DF91CF91FF90EF90DF90CF90089521E0DD
:1019C0002093B202813020E8920751F48091B00256
:1019D0009091B1029093B4028093B3020E94AD0C37
:1019E00097FD05C02091AF02222309F454C0209135
:1019F000AE02211150C021E02093B602EC01DF7746
:101A0000209709F04BC081E08093B70246983FE9E8
:101A1000C32E3FE0D32EE12CF12CCAEFD0E0E091B1
:101A2000160AF091170A0995811103C081E080938D
:101A3000B7028091B602882329F08091B7028823EB
:101A400009F43FC047980E94AD0C0097F1F19C014A
:101A5000DE010E94C336DC01CB0129E0B595A795D4
:101A6000979587952A95D1F7109290002AE02093B8
:101A70009100D0929900C09298008093B802909300
:101A8000B902A093BA02B093BB0280917100826048
:101A9000809371008DCF1092B602B0CF9E0150E0BE
:101AA00040E060E472E48FE090E00E9482366901D9
:101AB0007A0181E0C81AD108E108F1081092B70252
:101AC000AECF4699BFCF479ABECF8FEF9FEFDC01D5
:101AD000CBCF9C01E1E7F0E090819D7F908381E096
:101AE0008093B5023093B4022093B3023093B102D5
:101AF0002093B0020C94C10CCF93C82F8091B309EE
:101B0000863018F486E08093B30988E08093B409A6
:101B10008091B609C81740F086EF92E10E94690DE6
:101B20001092B609CF9108958CE492E10E94690D5C
:101B30008091B6098C1B8093B609F4CF6F927F9287
:101B40008F929F92AF92BF92CF92DF92EF92FF92CD
:101B50000F931F93CF93DF93DC0159012C2DC02FDE
:101B6000D0E0CE018A0F9B1F181619060CF076C024
:101B7000FB01EE0DF11D1E161F060CF06FC0603448
:101B800071050CF06BC04115510509F467C0FB01EC
:101B900077FF04C0EE27FF27E61BF70B3E2F3770B9
:101BA000F32EFB0177FD379613E0F595E7951A952F
:101BB000E1F73E2F77FF07C0FF2029F03FEF3E0FF0
:101BC00068E06F19F62EEE27FF27EA1BFB0BB7FD27
:101BD00002C0F0E0E0E0803891050CF44EC090E8DF
:101BE0009A1B9E1B632F032E000C770B162F10954C
:101BF0003F3F0CF010E0CC24C3948E2D877009F485
:101C0000C12CE694E694E694EC0C6E0D711D6930DF
:101C100071051CF068E0E62EE31AE11A310F60E866
:101C2000360360011124B6016A0F7B1F6E0F7F1F00
:101C3000DF01019FA00DB11D11248D014A0F5B1F13
:101C4000AF2D0F2C000CBB0B233009F416C1B8F4D8
:101C5000213009F4CBC0223009F478C0DF91CF9154
:101C60001F910F91FF90EF90DF90CF90BF90AF90BA
:101C70009F908F907F906F900895902FB2CF2A3FC2
:101C8000A9F1E30E2B3F51F73E1541F38B010352AF
:101C90001B4FD12CC12CC91608F0A2C0FA01EC0DC3
:101CA000FD1DE491F0E04F010A2E02C0880C991C42
:101CB0000A94E2F737FD06C0F8018081282D2095AF
:101CC00082238083FF2061F0373054F45801F0E81C
:101CD000AF0EB11C292D2095F501808182238083D0
:101CE000FFEFCF1ADF0A0F5F1F4FD5CFE30E3E1570
:101CF00009F4B4CF8B0103521B4FD12CC12CC91650
:101D000008F068C0FA01EC0DFD1DE491F0E04F0110
:101D10000A2E02C0880C991C0A94E2F737FD04C011
:101D2000F801808188298083FF2051F0373044F406
:101D30005801F0E8AF0EB11CF5018081892980833C
:101D4000FFEFCF1ADF0A0F5F1F4FD9CF0FEF10E061
:101D50000A2E02C0000F111F0A94E2F70095109599
:101D6000212FE30E3E1509F479CFFB01E352FB4F1F
:101D70006F01B12CA12CA91638F5FA01EA0DFB1D53
:101D8000E491F0E03F010A2E02C0660C771C0A9431
:101D9000E2F737FD05C0F601808180238629808324
:101DA000FF2059F037304CF44601F0E88F0E911CBB
:101DB000F4018081822387298083FFEFAF1ABF0A55
:101DC0008FEFC81AD80AD7CF3F5F4C0F5D1F6058FE
:101DD0007F4FC8CF3F5F4C0F5D1F60587F4F87CF4D
:101DE0003F5F4C0F5D1F60587F4F4ECF0A0D1B1D8C
:101DF000E30E3E1509F432CFFB01E352FB4F6F01B6
:101E0000B12CA12CA91688F5F801EA0DFB1D8490D0
:101E1000912C0A2E02C0880C991C0A94E2F7809437
:101E20009094FA01EA0DFB1D6490712C0A2E02C0F9
:101E3000660C771C0A94E2F737FD05C0F601808135
:101E4000882186298083FF2049F037303CF4F60151
:101E5000E058FF4F8081892187298083FFEFAF1AE7
:101E6000BF0A8FEFC81AD80ACDCF3F5F4C0F5D1F56
:101E70000C0F1D1F60587F4FBCCFC92ED12C400FB7
:101E8000511FDB01A352BB4F635A7A4F00E810E0A9
:101E90000C191D09CC19DD09CC0FDD1FE1E0F0E0C4
:101EA0006F010F2C01C0CC0C0A94EAF7892E9E2CEE
:101EB000FA01CF93DF93EB01A5906590FF2059F0D5
:101EC000AC9C50016C9C300137302CF4288170940C
:101ED00027212B29299333233AF02C916094262132
:101EE0002A292D930C94750F11969A9529F7EA9447
:101EF00051F0982D33951124EC0FF11DA00FB11D59
:101F0000C00FD11DD9CFDF91CF911124A7CEBC0135
:101F100090E080E00C94F50B43B18FB129B190E0D3
:101F20008095909534E0959587953A95E1F788707E
:101F300030E02095309553E0359527955A95E1F797
:101F40002370822B942F9095907D892B089583B7D1
:101F5000817F83BF83B7816083BF889583B78E7F7E
:101F600083BF0895089590E2699FF0011124E80F5E
:101F7000F11DF595E795E25DFE4F908180FF08C069
:101F80009F7080E1489FA0011124942B90830895B5
:101F9000907F492B40830895803220F4683110F4FB
:101FA0000C94B30F0895803290F4683180F490E27D
:101FB000699FB0011124680F711DFB01F595E7952C
:101FC000E25DFE4F808160FD82958F7008958DE007
:101FD0000895672F892F0E94D30F91E0893008F46C
:101FE00090E0892F0895AF92BF92CF92DF92EF9247
:101FF000FF920F931F93CF93DF93C82EE42EFF24FD
:10200000F394F80E0FEF060F1FEF180FC1E0C60F85
:1020100093E0D92EBF2CBC18D0E0AD2EA10E602FBE
:102020008A2D0E94D30F8E1519F16C2F8A2D0E94D4
:10203000D30F8E15E9F0AD2EA00E6A2D812F0E94D0
:10204000D30F8E15A9F06A2D8F2D0E94D30F8E15F8
:1020500079F0DF5FDD11E1CF82E0D82EDD0EF39461
:1020600001501150CF5F81E4D812D4CFBB24BA9471
:102070008B2DDF91CF911F910F91FF90EF90DF900B
:10208000CF90BF90AF90089590E2699FB001112466
:10209000860F972F911DFC01F595E795E25DFE4FA8
:1020A000908180FF04C0892F82958F700895892FB9
:1020B000FCCF0E94D30F91E08D3008F490E0892F7F
:1020C00008950F931F93CF93DF93182F062FD0E01F
:1020D0006FEF600F0E945910C0E0882311F0D1E02B
:1020E000C1E0602F81E0810F0E945910882311F018
:1020F000D260CF5F61E0600F812F0E94591088236A
:1021000011F0D460CF5F602F8FEF810F0E945910C4
:10211000882311F0D860CF5F8D2F9C2FDF91CF9156
:102120001F910F9108952F923F924F925F926F925D
:102130007F928F929F92AF92BF92CF92DF92EF9257
:10214000FF920F931F93CF93DF937C016B018A0162
:10215000E90197FF02C081509F4F892E992E990C5B
:102160009908C80117FF02C081509F4F292E392EB0
:10217000330C33088214930409F45FC0821493046F
:102180000CF0DFC054018FEFA81AB80ABA2CAA24A9
:10219000AE18BF0844244394512CBE016C197D092C
:1021A000072E000C880B990B982F872F762F662708
:1021B00098012E193F0937FF03C031952195310948
:1021C000032E000C440B550B0E94823666246A9441
:1021D0007FE7772E211580E838074105510554F433
:1021E0003901213030484F4F5F4F24F46624639407
:1021F00060E8762E9301D5010E94003720E031E09F
:1022000040E050E00E9482365601A20EB31E840CBC
:10221000951C240C351CC501B7FE02C081509F4F90
:10222000A60CB71C692F882D0E94591081119DC0E2
:10223000840C951C2814390471F7C601D7FE02C01E
:1022400081509F4FA92EB92EBB0CBB08CE01D7FFE2
:1022500002C081509F4F492E592E550C5508A41489
:10226000B50409F45AC0A414B5040CF074C03501C7
:102270008FEF681A780A762C66246C187D088824FB
:102280008394912CB8016E197F09072E000C880BDE
:10229000990B982F872F762F66279E012C193D09C1
:1022A00037FF03C0319521953109032E000C440BF3
:1022B000550B0E948236CFEFDFE7211580E8380703
:1022C0004105510544F4E901213030484F4F5F4F3B
:1022D00014F4C1E0D0E89E01D3010E94003720E051
:1022E00031E040E050E00E948236E20EF31EA80C7E
:1022F000B91C480C591CC701F7FE02C081509F4F02
:10230000EC0EFD1E6A2D892F0E94591081112DC0DF
:10231000A80CB91C4A145B0471F781E0DF91CF91DE
:102320001F910F91FF90EF90DF90CF90BF90AF90F3
:102330009F908F907F906F905F904F903F902F90E5
:102340000895C70160E071E00E94E6365C01442414
:102350004A94542C22CFC60160E071E00E94E63618
:102360003C0188248A94982C8DCF80E0D7CF90911F
:10237000BE03981731F08093BE031092BD031092F4
:10238000BC030895DC01605284E0689FB001112411
:102390006B557C4FFB01849184278C933196E4919B
:1023A000E4271196EC931197FB013296E491E42710
:1023B0001296EC931297FB013396E491E42713965F
:1023C000EC930895CF92DF92EF92FF920F931F93B9
:1023D000CF93DF9300D000D01F92CDB7DEB720E8B7
:1023E000629FB0011124460F572F511DFA01E3528D
:1023F000FB4F7F01009739F19E012F5F3F4F69012D
:10240000F90130E020E00AE010E02F5F3F4FB80113
:102410000E94D236805D8193CB012530310511F0C9
:10242000009799F78601020F131F0C151D05E9F09F
:102430004FEFF80162918F01C7010E94C211F4E0D1
:10244000EF0EF11CF2CF4FEF60E3CF010F900F9032
:102450000F900F900F90DF91CF911F910F91FF90F0
:10246000EF90DF90CF900C94C2110F900F900F90CF
:102470000F900F90DF91CF911F910F91FF90EF90F0
:10248000DF90CF900895EF92FF921F93CF93DF9349
:10249000122F119520E8629FE0011124C40FD11D75
:1024A000C352DB4F7C01F7016491FFEFEF1AFF0A83
:1024B000662331F0412FCE010E94C2112496F3CF42
:1024C000DF91CF911F91FF90EF90089580910001CF
:1024D000909101019C013695322F2227379527953F
:1024E00028273927C901892F992786952827392731
:1024F000922F8827822793279093010180930001D0
:102500000895EF92FF920F931F93CF93DF93FC01F7
:1025100020912F03822F8E7FCBE2D3E0C9F0309140
:102520005403832F8E7FC0E5D3E091F0909179031F
:10253000892F8E7FD1F136952695C0E5D3E03217ED
:1025400010F0CBE2D3E096952C812695921768F196
:10255000F983E8837B836A838C8140FB80F98C83D9
:102560007E0185E2E80EF11C8E010B5F1F4FE01625
:10257000F106F1F00E9466128F718051F80180839C
:102580000E9466128F718051F80181830E94661249
:102590008F718051F80182830E9466128F71895178
:1025A000F80183830C5F1F4FE2CFC5E7D3E0D0CFA4
:1025B0008C8181708C628C83DF91CF911F910F9100
:1025C000FF90EF9008952F923F924F925F926F92FB
:1025D0007F928F929F92AF92BF92CF92DF92EF92B3
:1025E000FF920F931F93CF93DF93CDB7DEB72C9756
:1025F0000FB6F894DEBF0FBECDBF982E6C87842E29
:10260000722E102FEB8255245A94580E81E0890DBA
:102610008983A92CB12C462E4A94962F9F5F9A83CA
:10262000C62ED12C112341F09B81992329F040E043
:10263000692F812F0E94CC0F88E0881508F45EC1B5
:10264000871508F4B7C11B8681E09C85923008F499
:1026500080E09B8580FB94F99B8781E0891508F0D9
:1026600080E09B8580FB97F99B87E92CF12C882DD6
:1026700090E09E838D836C01CE0CDF1C81E09EE197
:10268000C916D1040CF080E09B8580FB95F99B87EF
:102690008C85082F10E0872D90E098878F835C0150
:1026A000A00EB11E81E096E1A916B1040CF080E005
:1026B0009B8580FB96F99B878C8582508983442477
:1026C0004A94490C682F842D0E944410682C690C90
:1026D000882349F06981862D0E944410882319F0CF
:1026E0009B859F7E9B873C843A948EEF890D8A83DD
:1026F000632D0E9444105C84570C882349F0652D9B
:102700008A810E944410882319F09B859F779B87BC
:1027100081E0860D8C83632D0E944410882359F03C
:102720006C856F5F670D862D0E944410882319F019
:102730009B859F7D9B8781E0850D8B83682F842DF2
:102740000E944410882349F06B81862D0E9444101A
:10275000882319F09B859F7B9B876981842D0E942C
:10276000441081110AC0632D8A810E944410811196
:1027700004C08B858F7E8F778B876981862D0E9421
:10278000441081110AC0632D8C810E944410811174
:1027900004C09B859F7E9F7D9B876B81862D0E94B9
:1027A000441081110AC0652D8C810E944410811152
:1027B00004C08B858F7B8F7D8B876B81842D0E94DE
:1027C000441081110AC0652D8A810E944410811134
:1027D00004C09B859F7B9F779B87632D892D0E94DB
:1027E0004410882349F0632D8FEF860D0E9444101A
:1027F00022242394811101C0212C6C85862D0E94F6
:102800004410882349F06FEF650D862D0E94441017
:1028100091E09987811101C01986652D892D0E944B
:102820004410882349F0652D8FEF860D0E944410D7
:1028300091E09A87811101C01A866C85842D0E94CF
:102840004410882341F06FEF650D842D0E944410E1
:1028500091E0811101C090E0211005C08B858F7E31
:102860008F7D8F778B878985811105C08B858F7EC2
:102870008F7D8F7B8B878A85811105C08B858F7DAE
:102880008F7B8F778B87911105C09B859F7E9F7B68
:102890009F779B87EC14FD040CF0FCC02E2C632D5D
:1028A0008E2D0E944410811103C08B8581608B871F
:1028B000652D822D0E944410811103C09B85946078
:1028C0009B878C85823048F06981822D0E9444105C
:1028D000882319F09B859F7E9B8786E1A816B1040B
:1028E0004CF46B81822D0E944410882319F09B8543
:1028F0009F7B9B878FEFE81AF80ACCCF871408F4E8
:1029000059C00FEF882D8650990B1C019C85970D9F
:102910009B830E946612B1010E94D23693E0F92E89
:10292000F80E015009F48FCE1F2D190D642D812F43
:102930000E944410882369F36B81812F0E94441008
:10294000882339F3EE24EA94E10E642D8E2D0E9443
:1029500044108823F1F26B818E2D0E94441088234D
:10296000C1F266246394610E642D862D0E9444108A
:10297000882379F26B81862D0E944410882349F2C6
:102980000E946612272C312CB101625071090E94FD
:10299000D2369A81980F9B830C852C0C3D1C021516
:1029A00013040CF06CC04DE0602F812F0E94CC0FFF
:1029B0000F5FF5CFEE24EA94872D8650990B8C019A
:1029C000282C290C0E946612B8010E94D23623E0FE
:1029D000F22EF80EEA94EE2009F435CE9C859F0D78
:1029E0009B83692F852D0E944410882359F36B81A6
:1029F000822D0E944410882329F36B806A94662DEF
:102A0000852D0E9444108823E9F2662D822D0E94B4
:102A100044108823B9F26B806394662D852D0E9443
:102A20004410882379F2662D822D0E944410882359
:102A300049F20E946612282C312CB10162507109B2
:102A40000E94D2361981180F092D2A0C3B1C021541
:102A500013043CF44DE06B81802F0E94CC0F0F5F7C
:102A6000F6CF2FEF270D2F19EB80012F482D662D64
:102A7000892D0E94E3127F2CF82C8F2CD3CD4FEFA1
:102A8000480D4F19EB80012F272D6C85862D0E9454
:102A9000E312F3CF0A151B057CF5F02E602F842D71
:102AA0000E944410811103C09B8598609B876F2D05
:102AB000862D0E944410811103C08B8582608B8714
:102AC00091E0991548F46F2D8A810E944410882363
:102AD00019F08B858F778B879EE1C916D1044CF452
:102AE0006F2D8C810E944410882319F08B858F7D77
:102AF0008B870F5F1F4FCECF9B8595FB112710F95A
:102B000096FB002700F997FBFF24F0F894FF08C01C
:102B10000E94661264E670E00E94D236449780F10B
:102B2000FF2041F00E94661264E670E00E94D236F7
:102B30004497B0F1002341F00E94661264E670E011
:102B40000E94D2364497E0F1112309F449C00E9453
:102B5000661264E670E00E94D236449708F040C0E6
:102B600010E000E08F81988508171907CCF56C8577
:102B7000600F40E0862D0E94CC0F0F5F1F4FF2CFF9
:102B800010E000E08D819E81081719074CF540E0A8
:102B9000632D892D800F0E94CC0F0F5F1F4FF2CF46
:102BA00010E000E08F81988508171907CCF46C8538
:102BB000600F40E0842D0E94CC0F0F5F1F4FF2CFBB
:102BC00010E000E08D819E81081719074CF440E069
:102BD000652D892D800F0E94CC0F0F5F1F4FF2CF04
:102BE000871037C096E09815A0F58C858F5F898394
:102BF00093944DE0682F892D0E94CC0F6A946A94BB
:102C00004DE06981862D0E94CC0F5A945A944DE074
:102C1000652D862D0E94CC0F4DE0652D892D2C96BB
:102C20000FB6F894DEBF0FBECDBFDF91CF911F91DD
:102C30000F91FF90EF90DF90CF90BF90AF909F905B
:102C40008F907F906F905F904F903F902F900C945B
:102C5000CC0F2C960FB6F894DEBF0FBECDBFDF9120
:102C6000CF911F910F91FF90EF90DF90CF90BF9089
:102C7000AF909F908F907F906F905F904F903F901C
:102C80002F900895FC0140815181FB012081318109
:102C9000F901E05CF1094E175F07BCF020543F4F8B
:102CA0002417350794F0FC0142815381FB01828196
:102CB00093819C01205C31094217530734F020585E
:102CC0003E4F81E0241735070CF480E00895CF9340
:102CD000DF93DC0180919F03882389F08091A60314
:102CE000882369F18091AD03882361F18091B40359
:102CF000EFEAF3E0882329F0F0E0E0E019C0EAE928
:102D0000F3E012964D915C911397CD91DC91119760
:102D10002DED38E090E089E0A93AB807D9F48FEFBB
:102D200086838FEF8583D183C083538342836483FB
:102D300081E0EF2B09F480E0DF91CF910895E1EA83
:102D4000F3E0DFCFE8EAF3E0DCCF9F5F285F3F4F9F
:102D5000983139F3A217B307C1F79683E2CFFC018C
:102D60002091A9093091AA0980819181281B390BF2
:102D700037FF03C0319521953109932F2091AB097D
:102D80003091AC0942815381241B350B37FF03C0BE
:102D9000319521953109892F931708F4832F0895D0
:102DA0000F931F93CF93DF93EC01062F142F642F03
:102DB000802F0E94D30F893090F5612F8E810E9461
:102DC000D30F893060F56F81802F0E94D30F893037
:102DD00030F5EDEDF8E0202F002E000C330B412FE5
:102DE000012E000C550BEC17FD0761F084818770F4
:102DF000843041F086818217130621F4878184177D
:102E0000150669F0389689E0ED39F80761F70E8309
:102E10001F8381E0DF91CF911F910F91089580E092
:102E2000F9CFFC0184818770843039F0FAE08F9FFC
:102E3000C001112483589C4F089590E080E00895CC
:102E4000CF93DF93CDEDD8E09C819770943091F4CF
:102E5000688379834A835B8387708C837E835F83F7
:102E6000CE010E9411170296FC0184918D83DF919F
:102E7000CF9108952896F9E0CD39DF0729F7F7CFEC
:102E800020911503E1ECF2E050E040E0942F42176E
:102E9000A0F1909115039C3008F47EC0292F215099
:102EA000330BB90127E0269FF001279FF00D112475
:102EB000EF53FD4F2681281708F04FC080E047E010
:102EC000282F30E0261737070CF06BC0429FD00147
:102ED000439FB00D1124AF53BD4F2F5F3F4F429F13
:102EE000F001439FF00D1124EF53FD4F242F01906B
:102EF0000D922A95E1F78F5FE3CFBA0136814F5FDC
:102F00005F4F3796831710F62C3008F531E0320FFB
:102F10003093150337E0239FD0011124AF53BD4FE9
:102F2000AD014750510937E0FA0101900D923A95F1
:102F3000E1F72150DA01921798F39C3009F4A9CFF8
:102F400037E0939FC00111248F539D4F089580E077
:102F50006150710947E0911103C090E080E008954D
:102F6000282F30E026173707E4F4429FD001439F13
:102F7000B00D1124AF53BD4F2F5F3F4F429FF00163
:102F8000439FF00D1124EF53FD4F242F01900D921C
:102F90002A95E1F78F5FE4CF81E0890F80931503D5
:102FA000CFCF9150CDCF2F923F924F925F926F92A1
:102FB0007F928F929F92AF92BF92CF92DF92EF92C9
:102FC000FF920F931F93CF93DF93CDB7DEB76C972C
:102FD0000FB6F894DEBF0FBECDBF5C01322F330FAA
:102FE0008E2D90E09F838E83A22FA150BB0BCD012D
:102FF00002C095958795EA94E2F7889FF001899F32
:10300000F00DF00D1124CF01845A9D4F9B878A87C4
:10301000862F880F880B962F91958923E32FF0E058
:10302000DF01A60FB11D67FDBA95A138B1050CF4FB
:10303000E2C050E8561B5C8F242F2195942F990FE6
:10304000990B29232F87E40FF11D47FDFA95E134F1
:10305000F10514F030E4341B67FD60E0D12CAA27A1
:10306000BB27AC19BD09BE87AD8747FD40E0B0E185
:103070004B02F0011124DF01A078B370B98BA88B4B
:10308000712C612C90E01B8E1A8ED12CC12C512CEE
:10309000412CF12CE12C681B6A8B682F70E07C8B33
:1030A0006B8BAC8DA250BB0BBE8BAD8B632F625074
:1030B000770B788F6F8B21E0240F7F85271B298F5B
:1030C000AA89A80FBC8D8B1708F0FAC00A2E000C35
:1030D000BB0BFD01E35AFB4F208151E058872017BD
:1030E00008F01886201708F0E5C0EB89FC89E60D8A
:1030F000F71D6D897E89E617F7070CF47EC09923CA
:1031000009F4DEC0B7016C217D217C836B8370E004
:1031100060E0312C212C142F1770C888D988AC0D91
:10312000BD1DA352BB4F2C91E12FF0E0EC5AFD4F97
:103130009491DF84ED2CF12C1986812CF0E01A8219
:10314000912CEC86E31608F0AEC091109F2ECF882C
:10315000D88CEC14FD040CF092C0F7010E8002C074
:10316000F595E7950A94E2F7CA84DB84EC0DFD1D22
:10317000E491F0E0EE0FFF1FEC5CFD4FC590D490A2
:10318000EB81FC81EC21FD2151E05D83EF2B09F403
:103190001D82E1E0E983F201EC21FD21EF2B09F42E
:1031A0001982EA8DFB8DCE22DF22E1E0CD2809F4E1
:1031B000E0E0CA80CC2009F466C0882009F46FC022
:1031C000292B1F5F990F183059F42C93998DCC84BB
:1031D0009C0D903414F4A058BF4F2C9191E010E056
:1031E0005FEFE51AF50AFD81F987F82D8E2E9A809A
:1031F000C980CA82A6CF3C8F1FCF0E8002C0F59532
:10320000E7950A94E2F76A857B85E60FF71F6491DC
:1032100070E0660F771F660F771FF501E60FF71F47
:103220009923B9F025903490FB013296EA0DFB1DED
:1032300065917491ED85FE856E277F27F101E62368
:10324000F723EC20FD206F01CE28DF28DC82CB8223
:1032500062CF45905490FB013296EA0DFB1DE5903C
:10326000F4906D857E856E257F257B8F6A8F642126
:1032700075217C836B836A8D7B8D12014CCF1D82FF
:10328000E0E0198296CFD984D11009C0911007C00F
:103290005981552309F495CFEE2309F492CFF92FE4
:1032A000F0952F238ECF2C93CA8CDB8C7B8F6A8F6B
:1032B000720121018F5F2FEF621A720A988500CF89
:1032C0006C960FB6F894DEBF0FBECDBFDF91CF91E5
:1032D0001F910F91FF90EF90DF90CF90BF90AF9034
:1032E0009F908F907F906F905F904F903F902F9026
:1032F00008958F929F92AF92BF92CF92DF92EF92FA
:10330000FF920F931F93CF93DF938901A7E1B3E05F
:103310002D913C9111977C01E21AF30A12968D913E
:103320009C911397FB01E81BF90B1596CD91DC914D
:1033300016971796CD90DC909E01D7010E9400371A
:10334000872E982EA92EBB24A7FCBA949601DF01E4
:103350000E940037672F782F892F992787FD9A952C
:10336000861A970AD8018D929C92D7010E94003745
:10337000C72ED82EE92EFF24E7FCFA949E01DF0128
:103380000E940037672F782F892F992787FD9A95FC
:10339000C60ED71EFA01D182C082DF91CF911F9154
:1033A0000F91FF90EF90DF90CF90BF90AF909F90E4
:1033B0008F900895CF92DF92EF92FF920F931F9319
:1033C000CF93DF9300D000D0CDB7DEB77A0169018B
:1033D0009E012D5F3F4FAE014F5F5F4F0E947919F5
:1033E0000B811C81003211056CF0A981BA81B7FFF5
:1033F0000BC088279927801B910B880F991FA8174E
:10340000B90754F480E026C0109731F0C801880F46
:10341000991F8A179B07B4F321E430E00E94083714
:103420009801012E000C440B550B0E948236F701C7
:103430003183208380E890E2B8010E94E636F601ED
:1034400071836083F70180819181805C9F4F9183BC
:10345000808381E00F900F900F900F90DF91CF91BC
:103460001F910F91FF90EF90DF90CF900895AF9252
:10347000BF92CF92DF92EF92FF920F931F93CF9361
:10348000DF9300D000D0CDB7DEB75C01CB01BA012D
:10349000122F9E012D5F3F4FAE014F5F5F4F0E9485
:1034A000DA19882309F447C08B819C81189F600139
:1034B000199FD00C1124D7FE03C02FE7C20ED11CD8
:1034C000CC0CCD2CCC1CDD08F9802F2D3A81203876
:1034D000310514F02FE730E037FF02C030E020E084
:1034E00023523C4FF90110810130C9F198F10330AA
:1034F000C1F1FC184F2D0F2C000C550B96013327F2
:10350000319521953109220F331F421753079CF043
:1035100001E0080F802F0E944017FC01892B59F011
:103520008281B182A082F3821483C58206838E7F5A
:10353000E0FA81F982830F900F900F900F90DF9146
:10354000CF911F910F91FF90EF90DF90CF90BF90A0
:10355000AF900895180F2C2D220F121BCACF1C19E3
:10356000C8CF181BC6CFE0E4F0E0E81BF109FF2745
:10357000EE0FFF1FE45BFF4E859194910895AF928B
:10358000BF92CF92DF92EF92FF920F931F93CF9350
:10359000DF93C091A909D091AA098091AD090E9439
:1035A000B31A2CE3AC01249FC001259F900D112478
:1035B00097FF02C081509F4F892F990F990BC80F19
:1035C000D91FE091AD09F0E0EE0FFF1FE45BFF4E65
:1035D000859194912CE3289F8001299F100D11243F
:1035E00017FF02C001501F4F012F110F110B8091C7
:1035F000AB099091AC09080F191FCE01D7FF02C08B
:1036000081509F4FD92E780117FF03C05FEFE50E61
:10361000F11C6F2D8D2D0E94D30F8A3009F457C0F5
:103620008C3009F471C00091AB091091AC095801BC
:1036300080E3A81AB108E090A909F090AA096701EF
:10364000E0E3CE1AD108B501C6010E94E90FC82FE8
:10365000811131C0F0E3EF0EF11CB501C7010E94EA
:10366000E90FC82F811127C0005D1F4FB801C701A6
:103670000E94E90FC82F81111EC0B801C6010E9427
:10368000E90FC82F811117C00DED18E08DE9E82E64
:1036900089E0F82EF80184818770843039F069EA76
:1036A00079E0C8010E944216811138C0085F1F4F9F
:1036B000E016F10679F78C2FDF91CF911F910F91D2
:1036C000FF90EF90DF90CF90BF90AF9008954BE0C8
:1036D0006F2D8D2D0E94CC0F41E0B801CE010E94CC
:1036E00081128EE090E10E94690D8EEE9FE0909332
:1036F0009F0980939E098AE580939D098091A50981
:103700008F5F8093A5098FCF8FEC9FE090939F09E7
:1037100080939E098AE580939D0985CFC82FCBCFE2
:1037200087FD17C070E0603471059CF4ECEAF0E0AE
:1037300090E1969FD001A0781124A80F6770E60F42
:10374000F11D9491A352BB4F442321F08C91982BEF
:103750009C93089590958C919823FACF2F923F9245
:103760004F925F926F927F928F929F92AF92BF9291
:10377000CF92DF92EF92FF920F931F93CF93DF933D
:10378000CDB7DEB7A4970FB6F894DEBF0FBECDBF9E
:103790005A014901EC8ECF8A9E012B5F3F4FAE014B
:1037A000495F5F4F0E9479199E012F5F3F4FAE0125
:1037B0004D5F5F4FB401C5010E9479192B813C8197
:1037C00037FF0BC089819A81919581959109880F66
:1037D000991F281739070CF4EEC3EF81F8858D8007
:1037E0009E801E161F063CF4A401440F551F4E1761
:1037F0005F070CF4E0C369817A8140E2841691048A
:103800000CF003C1603271050CF4D5C300E210E086
:103810007801E818F9085B01A818B908C70196955E
:10382000982F882797958795B5010E94E6366D8772
:103830002E1B3F0B2E9DC0012F9D900D3E9D900D88
:103840001124B5010E94E636E60FF71FF887EF83D3
:103850001E830D8350E85E8700E0AD80BE80AF819F
:10386000B88521E430E00E94083795010B2C000C4C
:10387000440B550B0E9482362901E980FA80C90168
:10388000805C9F4F9A878987AB81BC8121E430E0BF
:103890000E94083797010F2C000C440B550B0E9417
:1038A000823619019FE3290E311CE985FA85E2155C
:1038B000F3050CF080C3121413040CF07CC3E03841
:1038C000F1050CF078C320E830E2C901B5010E948F
:1038D000E6367C876B87C901B7010E94E6366B012B
:1038E000F7FF2FC000EC1FEF0419150941018E1AD4
:1038F0009F0A092C000CAA08BB084E856D85461B43
:10390000550B9A01D8010E940037A50194010E942D
:1039100082367D85720F7D8796018B859C85281B5D
:10392000390BD8010E940037A50194010E9482360C
:10393000EB85FC85E20FF31FFC87EB8700E01A861E
:103940001986910149855A85241B350B3A8B298BA1
:10395000390137FF03C05FEF651A750A75946794E4
:103960006B857C856C157D050CF07FC0C601861BC0
:10397000970B9B8F8A8F91E09F872985298F3E8A9D
:103980002D8A30E82316310424F04FE750E05E8B97
:103990004D8B5D895B8B4B845C84E984FA846F85F5
:1039A000062E000C770B7F8F6E8F7F85709578A326
:1039B000F701E352FC4F1081F7FC08C0F701E35A0E
:1039C000FB4F8081841515040CF4F0C29F89992364
:1039D00009F409C120E0C7018095909581702223E8
:1039E00009F401C1002331F0E985FA85EE15FF05E0
:1039F00009F444C0FC8DFF2319F02E143F04F1F1AB
:103A00004FEF8823E1F145E53AC0603271054CF58E
:103A1000A0E2EA2EF12C5701A61AB70A861A970AD5
:103A200040E8B5014603C001479F900D1124B40141
:103A30000E94E63660586E87E21BF30BEA9DC001D8
:103A4000EB9D900DFA9D900D1124B4010E94E63675
:103A5000260F371F3C832B83FA82E9821D861C8E3A
:103A6000FCCE70E87E871D86F8CEEB85FC85EC19D0
:103A7000FD09FB8FEA8FFFEFFF877FCF40E0842DAA
:103A800021E4421651040CF080E4612F680FB12E3E
:103A9000B81AAE2C6B150CF43AC067FD38C03FE382
:103AA0003B15ACF1EB2DB7FCE0E0862F60340CF059
:103AB0008FE39701332723523B4F50E1E59FD0011D
:103AC0001124A078B370A20FB31F70E1879F40014B
:103AD000112490E8892293E09922280D391DE7707E
:103AE000F0E0EE54F04F877090E08655904FA217AB
:103AF000B30709F05CC02491FC018491E82FE22314
:103B00008E2F80959C918923E423E82BEC9340E051
:103B10008A2D0E94901B40E06B2D8A2D0E94901BE5
:103B2000F701E35AFB4F8081811105C08091DC03CE
:103B30008F5F8093DC032FEF4216510409F00CF4E1
:103B400050C03FEF3083992493942E143F0409F41E
:103B500058C08A8D9B8D681A790A8E8D9F8D840D31
:103B6000951D812E881AE8A18E0F8419180F77FEF3
:103B7000CCC02E8D3F8D420E531E49895A89640E4A
:103B8000751E992089F077FE0FC051E24516510449
:103B90005CF440E0612F640D8E2D0E94901B40E08C
:103BA000682D8E2D0E94901BFF858F1AE0CFE49127
:103BB0005E2F50957C915723E423E52BEC93A0587E
:103BC000BF4F2A173B0711F04C93F9CFD901FC01E5
:103BD0008491982F90952C9192234823492B4C93B4
:103BE00096CF4082B0CF498D4E151F0421F44F5F10
:103BF000498F912CAACF6D897E89E616F706CCF7FE
:103C0000EB8A898D9B89891709F4D5C1EB85FC85E1
:103C100034970CF4D0C1F4E0CF16D1040CF4CBC12E
:103C20002E853D85231709F4C6C16AEB462E6FE049
:103C3000562EF2016490232F30E0388B2F875E855B
:103C4000452F50E05B8F4A8F421B530B5D8F4C8F8B
:103C5000B6018B859C85681B790B7F8F6E8FFB89E6
:103C6000EF2FF0E0FCA3EBA3662009F4A4C16A9453
:103C7000F20131964491319614913196249134E0B9
:103C8000430E511CF201D490FD852F1768F33E8539
:103C9000341750F3ED2CF12C4F17C8F44217F1F103
:103CA00050E0AF85B889A41BB50BB701611B710942
:103CB000A69FC001A79F900DB69F900D1124622F63
:103CC00070E0641B750B0E94E636160F4F2F5E8561
:103CD000521728F52417B9F030E0AA8DBB8DA21B2E
:103CE000B30B612F70E06E197F09A69FC001A79FDB
:103CF000900DB69F900D1124642F70E0621B730B22
:103D00000E94E636D60E2E850AC06FEFE61AF60A36
:103D100070E8E716F1040CF44BCE73CF4D85842F79
:103D200090E06F857889861B970B9695982F88274A
:103D3000979587956C8D7D8D0E94E636062F822F94
:103D400090E0EF85F8898E1B9F0B9695982F88271A
:103D5000979587956C8D7D8D0E94E636462F202F96
:103D600030E0A989BA890E94083737E09595879590
:103D7000779567953A95D1F7A984BA84A60EB71EB0
:103D8000242F30E00E94083757E095958795779566
:103D900067955A95D1F729843A84260E371E2A143E
:103DA0003B040CF461CF2E8D3F8D029FC001039F19
:103DB000900D1124880F892F881F990B6B857C85A6
:103DC000860F971FF9014E9F90014F9F300D1124D0
:103DD000220F232F221F330B260F371FD29E700175
:103DE000D39EF00C1124F6E0F594E794FA95E1F7F0
:103DF00040E250E0421B530BE40EF51E189F900169
:103E0000199F300D11248901A6E015950795AA95F3
:103E1000E1F760E270E0681B790B060F171F17FFD0
:103E20009AC0F7FC21CF950122193309209FC001C8
:103E3000219F900D309F900D1124B701601B710BD5
:103E40000E94E636A60EB71E10E000E070E4E7160A
:103E5000F1040CF089C0998DC92ED12CAC14BD048D
:103E60000CF09BC02A143B04A1F0A6014A195B097F
:103E70009701201B310B429FC001439F900D529F21
:103E8000900D1124B1016A197B090E94E636060FD4
:103E9000171F41018C189D08540197FE03C0EFEFD6
:103EA000AE1ABE0AB594A7940E151F050CF077C084
:103EB0009701201B310B3C8B2B8B81E0B6016352A9
:103EC0007C4F7E8B6D8BE82F082E000CFF0BF88F3C
:103ED000EF8BF0EEF81BFAA32C143D040CF4C4CEC7
:103EE0002BA13CA12C153D050CF4BECEED89FE891D
:103EF0007190FE8BED8B08A3C9A260EE600F670D79
:103F000040E08C2D0E94901B2B893C89A21AB30A99
:103F10008F89988D800F911F3AA1830F48A1841B30
:103F2000780EB7FE14C06F89788D060F171FA80C86
:103F3000B91CB7FE06C040E0672D600F89A10E9442
:103F4000901B2C143D0469F7E016F10651F77FEF42
:103F5000C71AD70AC1CF80E4E816F1040CF47BCF6E
:103F6000003411050CF080CE4FE350E04E195F098C
:103F7000950122193309429FC001439F900D529F22
:103F8000900D1124B8016E197F090E94E636260EA5
:103F9000371E9FE3E92EF12C5ECF65017ACFA80191
:103FA0004E195F095C8B4B8B8FEF88CF8F892F89E0
:103FB000811111CD17CDA4960FB6F894DEBF0FBEB8
:103FC000CDBFDF91CF911F910F91FF90EF90DF90C8
:103FD000CF90BF90AF909F908F907F906F905F90A9
:103FE0004F903F902F9008955F926F927F928F92A3
:103FF0009F92AF92BF92CF92DF92EF92FF920F9378
:104000001F93CF93DF93E82EF62E0E94D30FCF2D70
:10401000D0E00E2D10E0609120037091210390916B
:104020002403D801A91BB109E0912203F0912303D5
:1040300090912503AE01491B51096A9F90016B9F26
:10404000300D7A9F300D1124E49F5001E59FB00C94
:10405000F49FB00C11242A193B0921153E4F0CF492
:104060004AC0AE9F9001AF9F300DBE9F300D11240E
:10407000649FF001659FF00D749FF00D11242E0FC9
:104080003F1F21153E4F0CF436C082508B3008F094
:10409000F9C0E82FF0E0E15BFF4D0C94FA365A20AE
:1040A000B620C420E020FC200A21EE20D2202621C8
:1040B000342118218091BF03E2E3AE2EE5E0BE2E4D
:1040C00082FF04C072E7A72E75E0B72E6F2D8FEF29
:1040D0008E0D0E9459108823F1F05C2F4427405820
:1040E0005F4F702F66276C5D7F4FE12C01E02BE462
:1040F000C5010E94371ADF91CF911F910F91FF9058
:10410000EF90DF90CF90BF90AF909F908F907F9077
:104110006F905F9008956F2D81E08E0D0E94591071
:10412000882349F05C2F442740585F4F702F662743
:1041300065527F4FDACF6FEF6F0D8E2D0E945910B1
:104140005C2F44274C5D5F4F81110BC061E06F0D08
:104150008E2D0E945910882371F25C2F44274552FE
:104160005F4F702F662760587F4FBFCF5C2F44276B
:1041700040585F4F702F662760587F4FE12C03E057
:1041800020E684EF91E0B5CF5C2F442740585F4F85
:10419000702F662760587F4FE12C00E020E684EB0B
:1041A00091E0A7CF5C2F442740585F4F702F6627C0
:1041B00060587F4FE12C00E020E584E791E099CF43
:1041C0005C2F442740585F4F702F662760587F4F01
:1041D000E12C00E020E484E391E08BCF5C2F4427C6
:1041E00040585F4F702F662760587F4FE12C00E0EA
:1041F00020E488EA9AE07DCF5C2F442740585F4F47
:10420000702F662760587F4FE12C00E020E488E69D
:104210009AE06FCF5C2F442740585F4F702F66277E
:1042200060587F4FE12C00E020E488EE9AE061CFF7
:104230005C2F442740585F4F702F662760587F4F90
:10424000E12C00E020E584EF90E053CF5C2F442781
:1042500040585F4F702F662760587F4FE12C00E079
:104260002BE488E29BE045CF5C2F442740585F4F0A
:10427000702F662760587F4FE12C00E02BE484EB21
:1042800090E037CF8091DC0387FD35CF6F2D8E2DE9
:104290000E945910882309F42ECFB02EAA24DC2FB7
:1042A000CC27450193943E0173946F2D8FEF8E0DB3
:1042B0000E945910582E6F2D81E08E0D0E945910CA
:1042C000D82E6FEF6F0D8E2D0E945910182F61E0C0
:1042D0006F0D8E2D0E945910F82E511026C080911E
:1042E0001703909118038A159B05FCF4F11009C07F
:1042F000EE24E3948091190390911A038615970593
:104300000CF0E12C111108C001E08091190390918B
:104310001A03C817D9070CF000E0CC24C39493010A
:10432000A501BE01C5010E94AE1BF11025C0809100
:10433000190390911A0368167906F4F4D11009C094
:10434000EE24E39480911703909118038815990542
:104350000CF0E12C511008C001E0809117039091FE
:104360001803A816B9060CF000E0C12C9301A401B3
:10437000B301C5010E94AE1BD11026C08091170366
:104380009091180388169906FCF4111109C0EE24C7
:10439000E3948091190390911A03C817D9070CF080
:1043A000E12CF11008C001E08091190390911A03EB
:1043B000861597050CF000E0CC24C3949E01A4015F
:1043C000B301C4010E94AE1B111195CE8091190357
:1043D00090911A038C179D070CF08DCE511009C0D7
:1043E000EE24E3948091170390911803A816B90660
:1043F0000CF0E12CD11009C011E0809117039091CD
:104400001803881599050CF010E0C12C012F9E01AE
:10441000A501BE01C4010E94AE1B6DCECF92EF92EA
:10442000FF920F93CF93DF93213490F4CE2CD42FAF
:10443000C62F32E0E32E213238F4422F50E04131D2
:1044400051056CF0EE24E3944D2F6C2F0E94D3178E
:10445000DF91CF910F91FF90EF90CF900895E12CD5
:10446000233090F7862F660F990BAC01435A5B4FB0
:104470007A01FA018081223019F5801758F440E062
:104480006D2F8C2F0E94901B40E061E06D0F8C2FF0
:104490000E94901BF70181818017D0F6CF5F40E02A
:1044A0006D2F8C2F0E94901B61E06D0F40E08C2FD0
:1044B000DF91CF910F91FF90EF90CF900C94901BD4
:1044C000801730F640E06D2FF2CFCF930E948C0F13
:1044D000C0E184FFC0E00E948C0F80FDC0620E949A
:1044E0008C0F83FDC4600E948C0F81FDC8600E9408
:1044F0008C0F87FDC1600E948C0F86FDC2608C2FDF
:10450000CF910895CF93DF93C82FD62F5E9A88EC72
:1045100090E00E94870F5E9882E090E00E946C36E7
:10452000D81729F06D2F82E090E00E94743684EF56
:1045300091E00E94870F5E9A0E948C0F8C23C8170F
:10454000D9F3DF91CF9108951F920F920FB60F927A
:1045500011248F939F938091E1009091E100937FCC
:104560009093E10083FF0FC01092E90091E09093D7
:10457000EB001092EC0092E39093ED001092DB03BD
:1045800098E09093F00082FF22C093E09093E900BE
:104590009091F200992319F09AE39093E80090919A
:1045A000CC03992341F09091CC0391509093CC038C
:1045B000911101C05D9A9091DA03992341F0909195
:1045C000DA0391509093DA03911101C0289A84FF85
:1045D00018C08091E2008E7E81608093E20080911D
:1045E000E1008F7E8093E1008091CD038E7E80611B
:1045F0008093CD039F918F910F900FBE0F901F90CE
:10460000189580FFF7CF8091E2008E7E80618093C5
:10461000E2008091E1008E7E8093E1008091CD03E5
:104620008E7E8160E5CF1F920F920FB60F921124FC
:10463000CF92DF92EF92FF920F931F932F933F93AE
:104640004F935F936F937F938F939F93AF93BF939A
:10465000EF93FF93CF93DF93CDB7DEB76C97DEBFB9
:10466000CDBF1092E9008091E80083FF25C068E08B
:10467000CE0145960E94C30B82EF8093E8008D899E
:1046800087FF39C09091E80090FFFCCF982F90767B
:1046900009F034C19E894F89588D2F89F88C91116A
:1046A00031C0803861F58091CB038093F100109286
:1046B000F1008EEF8093E8006C960FB6F894DEBFA1
:1046C0000FBECDBFDF91CF91FF91EF91BF91AF9121
:1046D0009F918F917F916F915F914F913F912F911A
:1046E0001F910F91FF90EF90DF90CF900F900FBE32
:1046F0000F901F9018959EEF9093E800C7CF1092EF
:10470000F100D5CF913059F48111D3CF413051050B
:1047100081F68091CB038D7F8093CB03CACF9330FA
:1047200049F48111C6CF4130510519F68091CB0370
:104730008260F2CF953041F48091E80080FFFCCF99
:1047400020682093E300B5CF963009F0A9C00B8D07
:104750001C8D22E01092E9001092C9031092C80348
:10476000F2122EC01092C7031092C6030E94920B41
:104770001F8299E09983FA8291E09E8390EA98875C
:104780009AEF99872091C8033091C903275F3F4F63
:104790003C832B838D831092E9001092C903109201
:1047A000C8031093C7030093C60349E050E0BE015D
:1047B0006F5F7F4F80E00E946C0B0E94920B79CF5D
:1047C0001093C7030093C6030E94760ADC01129679
:1047D0000D911C910115110509F451C1D801ED91FC
:1047E000FC910480F581E02DBE016B5E7F4FC80116
:1047F0000995009709F03EC1F80100851185EACFBF
:10480000F3E0FF120EC08F89882309F440C0823084
:1048100061F440E867E082EA9FE00E94390B811171
:1048200048CF81E28093EB0047CF813029F440E804
:104830006BE086E99FE0F1CF833099F70E94760A1A
:10484000DC011296ED90FC908E010F5F1F4F680106
:10485000E114F10479F0D701ED91FC910680F78124
:10486000E02DB801C7010995080F111DF701E0847B
:10487000F184EECFD8011C92F60101900020E9F7F7
:104880003197BF016C197D0940E0C601C6CF60E8D1
:104890007FE0FB01449150E080E80E946C0B09CF5F
:1048A000973009F4BECF983021F481E08093F10075
:1048B00000CF993009F0FDCE837009F0B2CFE0E16E
:1048C000F1E081E031E096E32191222371F08093C1
:1048D000E9003093EB00DF0111972C912093EC005D
:1048E0009093ED008F5F873079F78EE78093EA0031
:1048F0001092EA008F898093DB03DBCE8B8D9C8D39
:104900001092E9001092C9031092C8039093C70354
:104910008093C603898D811192C08E899D89913AB9
:1049200049F4813209F07DCF47E050E067E071E063
:1049300080E0B3CF913209F074CF833269F48F896C
:10494000988DB0E0A0E08093030190930401A093C0
:104950000501B0930601ADCE803269F48091E80084
:1049600082FFFCCF67E087E091E00E94C30B8BEFF2
:104970008093E8009ECE823209F09BCE8F8980938F
:104980000E01EEEFFFE7859194918B3F9C4D51F125
:10499000E0E0F8E08091070190910801A091090101
:1049A000B0910A01803B9440A105B105F1F48091DA
:1049B0000E0180FD1AC0EE3F8AE0F80789F587E70F
:1049C00097E791838083809160008093CA0388E198
:1049D0009BE00FB6F894A895809360000FBE90936B
:1049E000600067CEEEEFFAE0D5CF80819181873706
:1049F000974709F05ECEA89580916000886180930A
:104A000060008091CA0380936000EE3F2AE0F207C5
:104A100089F08091FE0A9091FF0A9183808349CEAC
:104A2000808191818737980751F29093FF0A809394
:104A3000FE0AC5CF1092FF0A1092FE0A3ACE0E94DB
:104A4000760ADC0112960D911C910115110509F4ED
:104A5000E8CED801ED91FC910190F081E02DBE01EE
:104A60006B5E7F4FC8010995811123CEF801008547
:104A70001185EBCF181619060CF41BCED2CEF1E03F
:104A8000FF12BECE64E87FE004CF1F920F920FB6F4
:104A90000F9211242F933F938F939F93AF93BF93C4
:104AA0008091B6039091B703A091B803B091B90378
:104AB0003091BC0223E0230F2D3758F50196A11D3C
:104AC000B11D2093BC028093B6039093B703A093CB
:104AD000B803B093B9038091BD029091BE02A0913A
:104AE000BF02B091C0020196A11DB11D8093BD020D
:104AF0009093BE02A093BF02B093C002BF91AF914A
:104B00009F918F913F912F910F900FBE0F901F900B
:104B1000189526E8230F0296A11DB11DD2CF1F9232
:104B20000F920FB60F9211242F933F934F935F93E1
:104B30006F937F938F939F93AF93BF93EF93FF9365
:104B40008091B8029091B902A091BA02B091BB02D3
:104B5000892B8A2B8B2B09F440C08091B7028111DD
:104B60000BC088B190E4892788B98091B602882368
:104B700019F088B1805888B98091B8029091B90233
:104B8000A091BA02B091BB02181619061A061B06AC
:104B90009CF48091B8029091B902A091BA02B091B0
:104BA000BB020197A109B1098093B8029093B902A1
:104BB000A093BA02B093BB02FF91EF91BF91AF9166
:104BC0009F918F917F916F915F914F913F912F9125
:104BD0000F900FBE0F901F9018950E94C10CECCF44
:104BE000E8EBF9E01382128288EE93E0A0E0B0E0F7
:104BF00084839583A683B7838AE191E09183808340
:104C00008FEF9FEF95878487E8E1FAE02CE231E0AF
:104C1000318320831582168220E127839483838346
:104C20001486158616861786108A81EF99E0909370
:104C3000170A8093160A80E090E89093150A8093F3
:104C4000140A46983E9A47983F9A0895CF93DF9367
:104C5000CDB7DEB760970FB6F894DEBF0FBECDBFFD
:104C6000789484B5826084BD84B5816084BD85B547
:104C7000826085BD85B5816085BD80916E00816053
:104C800080936E00109281008091810082608093F9
:104C900081008091810081608093810080918000FB
:104CA0008160809380008091910082608093910068
:104CB000809191008160809391008091900081604B
:104CC000809390008091C10084608093C1008091A6
:104CD000C10082608093C1008091C1008160809397
:104CE000C1008091C30081608093C3008091C000A7
:104CF00082608093C0008091C20081608093C20076
:104D000080917A00846080937A0080917A0082603A
:104D100080937A0080917A00816080937A008091FC
:104D20007A00806880937A001092DB031092CB03A4
:104D30001092CD038091D70081608093D70080EAE4
:104D40008093D80089B5806189BD89B5826089BDAD
:104D500009B400FEFDCF61E070E080E090E00E94C9
:104D6000F50B8091D8008F7C80618093D800809172
:104D7000E000807F8093E0008091E1008E7E809350
:104D8000E1008DE08093E200559A209A81EC8093B7
:104D90007C0085B1886485B9239884B1866484B920
:104DA000589A899880B3836180BB8F9A85B1806D52
:104DB00085B98BB188618BB9879A84B18F6284B9C8
:104DC0008AB1876E8AB92D9A84B18F6D84B98EB1FC
:104DD0008F6B8EB98DB18F6B8DB9259A259A80E531
:104DE0008CBD81E08DBD85E090E00E94870F899A9F
:104DF00085E090E00E94870F88988C98E5E2F5E0C6
:104E000084918EBD00000DB407FEFDCF319625E0E4
:104E1000E233F207A9F78C9A81E88093640081E07D
:104E2000809365000E948C0F83FF13C08C9885EAE5
:104E30008EBD00000DB407FEFDCF8C9A5E985E9883
:104E40005E98809164008062809364000E94A70F46
:104E5000FDCF0E948C0F80FF16C05E980E948C0FC1
:104E60008970893019F46FEF0E9482220E948C0FA2
:104E70008370833019F460E00E94822288EC90E015
:104E80000E94870FE6CF5E9A81E280931F0A1092FC
:104E9000BC0380912F03817080932F038091540372
:104EA000817080935403809179038170809379039A
:104EB00010929F031092A6031092AD031092B403B8
:104EC0004DED58E05E834D83AD81BE8114968C918B
:104ED0001497887F846014968C9314971896BE83D9
:104EE000AD83AD59B94081F72FB7F8948091B603DF
:104EF0009091B703A091B803B091B9032FBF8093ED
:104F0000C2039093C303A093C403B093C5038FB7A8
:104F1000F8944091B6035091B7036091B803709133
:104F2000B9038FBF8091C0039091C103840F951F77
:104F30002091C2033091C303821B930B9093C10352
:104F40008093C0034093C2035093C3036093C40390
:104F50007093C5032FB7F8948091B6039091B7036F
:104F6000A091B803B091B9032FBF4091240A50918A
:104F7000250A6091260A7091270A2091280A222387
:104F800079F02091200A821B8093290A1092280A26
:104F900080E090E0892B09F4BACF0E940000B7CFDF
:104FA00084179507A607B70730F4481B423080F3F3
:104FB0000E94A70FEDCF21E02093280A8093200ABA
:104FC0009093210AA093220AB093230A20911F0AEA
:104FD000820F911DA11DB11D8093240A9093250A73
:104FE000A093260AB093270A80911B0A90911C0A6D
:104FF000019690931C0A80931B0A58E1652E712C30
:105000008091BE032091C0033091C103223231054B
:1050100014F40C94BF319091BF039F5F9093BF0332
:10502000813009F4A7C610F40C941131823071F06C
:10503000833011F40C9490318091C0039091C1039E
:1050400081979093C1038093C003DACF80919D092B
:10505000882349F0815080939D09811104C01092EA
:105060009F0910929E090E946522E82E81709E2D54
:105070009270E4FE74C0982E9194992319F09924AB
:105080009394981AF12C9091B5098091AD099923C8
:1050900009F470C091509093B5098091B2098F15B1
:1050A0000CF0CAC08F5F8093B2098091B209982F2B
:1050B00095952091AD09920F9093AD09E2FA88245D
:1050C00080F8E3FC8A942091290330912A032F5F12
:1050D0003F4F30932A0320932903082F000F080F16
:1050E0004EE0949E000D1124802F811003C010E02B
:1050F0009920A1F0EAE02E9FE02D1124F0E0EE0FC0
:10510000FF1FE45BFF4E2591349137FF02C0215809
:105110003F4F220F232F221F330B122F9091B309E1
:10512000992379F091509093B3090E94661283708D
:1051300099270197180F0E9466128F71992740973F
:10514000800F9091260398170CF07BC09A5F909384
:10515000260389170CF07DC0809326037AC0F12CBA
:10516000882311F04AEFF42E992311F0F6E0FF0E98
:10517000912C89CFE5FE91CF9091B709943108F435
:105180008CCF98E09093B50996E09093B309009185
:10519000A9091091AA09805E0E94B31A97FD03968F
:1051A0009595879595958795080F191F8091AD095D
:1051B000E0E2E80FF0E0EE0FFF1FE45BFF4E259109
:1051C000349137FF02C02D5F3F4F359527953595B8
:1051D00027954091AB095091AC09240F351F909150
:1051E0009F039923C1F09091A6039923F9F0909120
:1051F000AD039923F1F09091B403EFEAF3E0992322
:1052000061F08091B70984518093B7098EEF9BE0DC
:105210000E94690D42CFEAE9F3E09FEF9683958300
:1052200011830083338322838483EBCFE1EAF3E0AD
:10523000F4CFE8EAF3E0F1CFF8160CF036CF815066
:1052400032CF891734F496509093260398170CF4B4
:1052500083CF80912703811744F48D5F80932703C8
:10526000181754F41093270307C018172CF4835011
:10527000809327038117B4F38091AD090E94B31A7C
:105280006C018091AD09E82FF0E0EE0FFF1FE45BA9
:10529000FF4EA590B490805C0E94B31A7C01E0910F
:1052A000AD09E05CF0E0EE0FFF1FE45BFF4E0591FF
:1052B0001491E82D880CFF0BAE9EC001AF9E900D9F
:1052C000BE9E900D1124B3010E94E636A090B00955
:1052D000B090B109A60EB71E292D990C330BCE9EA6
:1052E000C001CF9E900DDE9E900D1124B3010E944F
:1052F000E636E091AE09F091AF09E60FF71FE29EA6
:10530000C001E39E900DF29E900D1124B3010E9406
:10531000E636E60FF71FF093AF09E093AE09029F60
:10532000C001039F900D129F900D1124B3010E94A4
:10533000E636A60EB71EB092B109A092B009B7FE2C
:1053400003C053E0A50EB11CB594A794B594A794DF
:10535000F7FD33968F011595079515950795809163
:10536000A9099091AA09800F911F9093AA0980938F
:10537000A9098091AB099091AC098A0D9B1D90936E
:10538000AC098093AB090E94BF1A882381F18091F8
:10539000AB099091AC098A199B099093AC09809351
:1053A000AB090E94BF1A882311F18091A90990913D
:1053B000AA09801B910B9093AA098093A909809157
:1053C000AB099091AC098A0D9B1D9093AC09809319
:1053D000AB090E94BF1A882351F08091AB099091CC
:1053E000AC098A199B099093AC098093AB09209171
:1053F000AE093091AF0947E0429FC001439F900D35
:10540000112497FD079633E0959587953A95E1F736
:105410009093AF098093AE092091B0093091B10902
:1054200047E0429FC001439F900D112497FD0796CE
:1054300023E0959587952A95E1F79093B10980939C
:10544000B0098091B709843638F49091B50991116B
:1054500003C08F5F8093B7098091B409882319F046
:1054600081508093B4098091A9099091AA0997FF6E
:1054700002C081509F4FF92E0091AB091091AC09E9
:1054800017FF02C001501F4FE12E612F8F2D0E9488
:10549000D30F863009F4E1C008F0A2C0853009F4CA
:1054A000BDC00AE913E085E0282E312CD8011596FD
:1054B0008C911597882309F466C1815015968C93B9
:1054C000159714968C910E94B31A97FD03962C01A0
:1054D0005594479455944794D8011496EC91F0E074
:1054E000EE0FFF1FE45BFF4E8590949097FE03C084
:1054F000B3E08B0E911C9594879495948794F80152
:10550000A080B180A40CB51CB182A082C280D380DF
:10551000C80CD91CD382C2828681E9EAEE2EE9E06A
:10552000FE2E8F3F41F0F8E08F9FC00111249C01B7
:105530002352374F7901B601C5010E94E90F882334
:1055400009F4CCC0B7FE03C03FEFA30EB11CFB2C87
:10555000AB2CD7FE03C04FEFC40ED11CBD2C6D2D5C
:105560008A2D0E94D30F893009F0B5C040E06D2D1F
:105570008A2D0E94CC0FDC861B86CB84DC8450E80D
:10558000C50ED11CFE861D86ED84FE8460E8E60E05
:10559000F11C41E0B601C7010E9481120E9466120F
:1055A000B1010E94D2368130910509F48CC008F413
:1055B00084C0029709F48DC084E39DE00E94690DC8
:1055C000F80162817381681979098081918140E0D5
:1055D000841995090E948112D80115961C92D3C096
:1055E000873009F452C0883009F05BCF40E0612F6A
:1055F0008F2D0E94CC0F8EE090E10E94690D8CE708
:105600009CE090939F0980939E098AE580939D0971
:105610008091A7098F5F8093A70943CF8091B60936
:10562000843608F03ECF8C34B0F084E68093B6091F
:1056300040E06E2D8F2D0E94CC0F8EE090E10E94F5
:10564000690D88EC9CE090939F0980939E098AE500
:1056500080939D0926CF875EE9CF40E0612F8F2D93
:105660000E94CC0F8EE090E10E94690D82EB9CE0DD
:1056700090939F0980939E098AE580939D0980916C
:10568000A8098F5F8093A8090CCF40E0612F8F2D70
:105690000E94CC0F8EE090E10E94690D84E99CE0AD
:1056A00090939F0980939E098AE580939D0980913C
:1056B000A6098F5F8093A609F4CEA601B70183E007
:1056C0000E94201779CF45E06B2D8A2D0E94CC0FC8
:1056D00073CF46E0F9CF82EE9CE070CF89EAE816FE
:1056E00089E0F80609F0AEC07DEDE72E78E0F72EF0
:1056F000D70114968C911497E82FE770E430D1F11C
:105700002D913C911197A90140565109A416B50657
:105710008CF1205A3F4F2A153B0564F112962D91CA
:105720003C911397A90140565109C416D50614F1AE
:10573000205A3F4F2C153D05ECF015969C9115977E
:105740009B3008F060C0F0E0E056F64F91819F5F1B
:105750009183887F846014968C9384E39DE00E94FB
:10576000690DF7016281738141E0808191810E941E
:10577000811226CFB8E0EB0EF11CED81FE81EE1513
:10578000FF0509F0B5CF095F1F4FE6EBF3E0E01727
:10579000F10709F08BCEABE2B3E090E81FE7149677
:1057A0008C9114978E7FAD014B5D5F4F882309F478
:1057B00095C0FD013596E417F50709F489C080818D
:1057C0008038F9F023812D5F23833281682F082EE2
:1057D000000C770B630F711D37FD7A9561587F4F71
:1057E0006F3F710568F46181022E000C330B260FA8
:1057F000311D67FD3A9521386FEF36070CF05AC01E
:1058000090833496D8CF9A5015969C9382EE9CE064
:105810000E94690DF7018481877C8861D82E84837A
:10582000C7010E9411170696FC0184918295880F8A
:10583000880F807CFD2DFF73DF2ED82AD7011496A8
:10584000DC92BECE8091A9099091AA099C012056B4
:105850003109A216B3060CF496CF805A9F4F8A15D1
:105860009B050CF490CF8091AB099091AC099C0101
:1058700020563109C216D3060CF485CF805A9F4FAB
:105880008C159D050CF47FCFC7010E94111700975E
:1058900009F496CE0496FC0184910E947C0D8091BF
:1058A000B60981118DCED70114968C9187708093A3
:1058B000A00986CE203831051CF012821382118394
:1058C0002281820F808381812381820F818399CFFE
:1058D00014968C911497825014968C93DA014A593D
:1058E000534009F05CCF0DED18E0D80114968C916F
:1058F0001497982F9770943051F0982F907C99F1CD
:105900009091BF039F708054992309F458C0085F99
:105910001F4FB9E00D391B0741F78091AB099091FA
:10592000AC0997FF02C081509F4F692F8091A90950
:105930009091AA0997FF02C081509F4F892F0E9422
:10594000D30F843041F4809102018A3009F00DC2F6
:1059500084E00E94B7118091B60981116DCB84E07B
:105960000E94B71169CB982F96959695969597704A
:10597000913041F140F0923009F4F2C1933039F6A0
:10598000877C88601CC02091AB093091AC094091A4
:10599000A9095091AA09F8016281738180819181DE
:1059A0000E949310882309F4B2CF8CE69EE00E94F7
:1059B000690DD80114968C911497877C8860149691
:1059C0008C93A5CFF801F780E6806F2D8E2D0E9475
:1059D0005910D82EC8010E941117D11085C02E2D44
:1059E00030E038872F83522E442430E8430E511C78
:1059F0004F2D50E05A874987342E222450E8250E37
:105A0000311CFC013396E491F0E0EE24FF24EE1A01
:105A1000FF0AD801AD90BC90C2018A199B094701C9
:105A20008E159F052CF04F018E179F070CF44C012B
:105A3000D8011296CD90DC90C1018C199D098E156C
:105A40009F052CF07F018E179F070CF47C01A80C9A
:105A5000B91CF801B182A082CE0CDF1CD382C282B5
:105A600069EA79E0C8010E944216882309F4B2C0AD
:105A7000C8010E941117FC013796E491E11127C07B
:105A80000496FC0184910E947C0D8091B6098111DD
:105A900006C0D80114968C9187708093A009F801F4
:105AA0008481877CD82E6894D4F8D482C8010E945F
:105AB00011170596FC0184918295880F880F807CD0
:105AC000FD2DFF73DF2ED82AD8011496DC92F80141
:105AD0008081918188199909918380838281938142
